{
  "contracts/Campaign.sol": {
    "Campaign": {
      "abi": [
        {
          "inputs": [
            {
              "internalType": "string",
              "name": "campaignTitle",
              "type": "string"
            },
            {
              "internalType": "uint256",
              "name": "requiredCampaignAmount",
              "type": "uint256"
            },
            {
              "internalType": "string",
              "name": "imgURI",
              "type": "string"
            },
            {
              "internalType": "string",
              "name": "storyURI",
              "type": "string"
            },
            {
              "internalType": "address",
              "name": "campaignOwner",
              "type": "address"
            },
            {
              "internalType": "string",
              "name": "campaignCategory",
              "type": "string"
            }
          ],
          "stateMutability": "nonpayable",
          "type": "constructor"
        },
        {
          "anonymous": false,
          "inputs": [
            {
              "indexed": true,
              "internalType": "address",
              "name": "donor",
              "type": "address"
            },
            {
              "indexed": true,
              "internalType": "uint256",
              "name": "amount",
              "type": "uint256"
            },
            {
              "indexed": true,
              "internalType": "uint256",
              "name": "timestamp",
              "type": "uint256"
            }
          ],
          "name": "Donated",
          "type": "event"
        },
        {
          "inputs": [],
          "name": "category",
          "outputs": [
            {
              "internalType": "string",
              "name": "",
              "type": "string"
            }
          ],
          "stateMutability": "view",
          "type": "function"
        },
        {
          "inputs": [],
          "name": "donate",
          "outputs": [],
          "stateMutability": "payable",
          "type": "function"
        },
        {
          "inputs": [],
          "name": "image",
          "outputs": [
            {
              "internalType": "string",
              "name": "",
              "type": "string"
            }
          ],
          "stateMutability": "view",
          "type": "function"
        },
        {
          "inputs": [],
          "name": "owner",
          "outputs": [
            {
              "internalType": "address payable",
              "name": "",
              "type": "address"
            }
          ],
          "stateMutability": "view",
          "type": "function"
        },
        {
          "inputs": [],
          "name": "receivedAmount",
          "outputs": [
            {
              "internalType": "uint256",
              "name": "",
              "type": "uint256"
            }
          ],
          "stateMutability": "view",
          "type": "function"
        },
        {
          "inputs": [],
          "name": "requiredAmount",
          "outputs": [
            {
              "internalType": "uint256",
              "name": "",
              "type": "uint256"
            }
          ],
          "stateMutability": "view",
          "type": "function"
        },
        {
          "inputs": [],
          "name": "story",
          "outputs": [
            {
              "internalType": "string",
              "name": "",
              "type": "string"
            }
          ],
          "stateMutability": "view",
          "type": "function"
        },
        {
          "inputs": [],
          "name": "title",
          "outputs": [
            {
              "internalType": "string",
              "name": "",
              "type": "string"
            }
          ],
          "stateMutability": "view",
          "type": "function"
        }
      ],
      "evm": {
        "bytecode": {
          "linkReferences": {},
          "object": "608060405234801561001057600080fd5b50604051620007fe380380620007fe83398101604081905261003191610228565b85516100449060009060208901906100b1565b506001859055835161005d9060029060208701906100b1565b5082516100719060039060208601906100b1565b5080516100859060049060208401906100b1565b5050600580546001600160a01b0319166001600160a01b03929092169190911790555061032892505050565b8280546100bd906102ed565b90600052602060002090601f0160209004810192826100df5760008555610125565b82601f106100f857805160ff1916838001178555610125565b82800160010185558215610125579182015b8281111561012557825182559160200191906001019061010a565b50610131929150610135565b5090565b5b808211156101315760008155600101610136565b634e487b7160e01b600052604160045260246000fd5b600082601f83011261017157600080fd5b81516001600160401b038082111561018b5761018b61014a565b604051601f8301601f19908116603f011681019082821181831017156101b3576101b361014a565b816040528381526020925086838588010111156101cf57600080fd5b600091505b838210156101f157858201830151818301840152908201906101d4565b838211156102025760008385830101525b9695505050505050565b80516001600160a01b038116811461022357600080fd5b919050565b60008060008060008060c0878903121561024157600080fd5b86516001600160401b038082111561025857600080fd5b6102648a838b01610160565b975060208901519650604089015191508082111561028157600080fd5b61028d8a838b01610160565b955060608901519150808211156102a357600080fd5b6102af8a838b01610160565b94506102bd60808a0161020c565b935060a08901519150808211156102d357600080fd5b506102e089828a01610160565b9150509295509295509295565b600181811c9082168061030157607f821691505b6020821081141561032257634e487b7160e01b600052602260045260246000fd5b50919050565b6104c680620003386000396000f3fe60806040526004361061007b5760003560e01c80639632e7201161004e5780639632e7201461011c578063ed88c68e14610132578063ef430aa61461013c578063f3ccaac01461015157600080fd5b806346c922d11461008057806348b9ef40146100ab5780634a79d50c146100cf5780638da5cb5b146100e4575b600080fd5b34801561008c57600080fd5b50610095610166565b6040516100a291906103bb565b60405180910390f35b3480156100b757600080fd5b506100c160015481565b6040519081526020016100a2565b3480156100db57600080fd5b506100956101f4565b3480156100f057600080fd5b50600554610104906001600160a01b031681565b6040516001600160a01b0390911681526020016100a2565b34801561012857600080fd5b506100c160065481565b61013a610201565b005b34801561014857600080fd5b506100956103a1565b34801561015d57600080fd5b506100956103ae565b6003805461017390610410565b80601f016020809104026020016040519081016040528092919081815260200182805461019f90610410565b80156101ec5780601f106101c1576101008083540402835291602001916101ec565b820191906000526020600020905b8154815290600101906020018083116101cf57829003601f168201915b505050505081565b6000805461017390610410565b600154600654106102515760405162461bcd60e51b815260206004820152601560248201527410d85b5c185a59db88199d5b1b1e48199d5b991959605a1b60448201526064015b60405180910390fd5b600034116102ac5760405162461bcd60e51b815260206004820152602260248201527f446f6e6174696f6e206d7573742062652067726561746572207468616e207a65604482015261726f60f01b6064820152608401610248565b60015460065434916000916102c2908490610461565b11156102e7576006546001546102d89190610479565b91506102e48234610479565b90505b6005546040516001600160a01b039091169083156108fc029084906000818181858888f19350505050158015610321573d6000803e3d6000fd5b5081600660008282546103349190610461565b90915550506040514290839033907f4928895ba6723e8e27b15f32e4c3054a1b6c7f8c03f133558d6fa42b3928d14c90600090a4801561039d57604051339082156108fc029083906000818181858888f1935050505015801561039b573d6000803e3d6000fd5b505b5050565b6004805461017390610410565b6002805461017390610410565b600060208083528351808285015260005b818110156103e8578581018301518582016040015282016103cc565b818111156103fa576000604083870101525b50601f01601f1916929092016040019392505050565b600181811c9082168061042457607f821691505b6020821081141561044557634e487b7160e01b600052602260045260246000fd5b50919050565b634e487b7160e01b600052601160045260246000fd5b600082198211156104745761047461044b565b500190565b60008282101561048b5761048b61044b565b50039056fea26469706673582212205702cdff04de1d076b3dd545ac98077e116d435497d27cb56b1a87bacc66072b64736f6c634300080a0033",
          "opcodes": "PUSH1 0x80 PUSH1 0x40 MSTORE CALLVALUE DUP1 ISZERO PUSH2 0x10 JUMPI PUSH1 0x0 DUP1 REVERT JUMPDEST POP PUSH1 0x40 MLOAD PUSH3 0x7FE CODESIZE SUB DUP1 PUSH3 0x7FE DUP4 CODECOPY DUP2 ADD PUSH1 0x40 DUP2 SWAP1 MSTORE PUSH2 0x31 SWAP2 PUSH2 0x228 JUMP JUMPDEST DUP6 MLOAD PUSH2 0x44 SWAP1 PUSH1 0x0 SWAP1 PUSH1 0x20 DUP10 ADD SWAP1 PUSH2 0xB1 JUMP JUMPDEST POP PUSH1 0x1 DUP6 SWAP1 SSTORE DUP4 MLOAD PUSH2 0x5D SWAP1 PUSH1 0x2 SWAP1 PUSH1 0x20 DUP8 ADD SWAP1 PUSH2 0xB1 JUMP JUMPDEST POP DUP3 MLOAD PUSH2 0x71 SWAP1 PUSH1 0x3 SWAP1 PUSH1 0x20 DUP7 ADD SWAP1 PUSH2 0xB1 JUMP JUMPDEST POP DUP1 MLOAD PUSH2 0x85 SWAP1 PUSH1 0x4 SWAP1 PUSH1 0x20 DUP5 ADD SWAP1 PUSH2 0xB1 JUMP JUMPDEST POP POP PUSH1 0x5 DUP1 SLOAD PUSH1 0x1 PUSH1 0x1 PUSH1 0xA0 SHL SUB NOT AND PUSH1 0x1 PUSH1 0x1 PUSH1 0xA0 SHL SUB SWAP3 SWAP1 SWAP3 AND SWAP2 SWAP1 SWAP2 OR SWAP1 SSTORE POP PUSH2 0x328 SWAP3 POP POP POP JUMP JUMPDEST DUP3 DUP1 SLOAD PUSH2 0xBD SWAP1 PUSH2 0x2ED JUMP JUMPDEST SWAP1 PUSH1 0x0 MSTORE PUSH1 0x20 PUSH1 0x0 KECCAK256 SWAP1 PUSH1 0x1F ADD PUSH1 0x20 SWAP1 DIV DUP2 ADD SWAP3 DUP3 PUSH2 0xDF JUMPI PUSH1 0x0 DUP6 SSTORE PUSH2 0x125 JUMP JUMPDEST DUP3 PUSH1 0x1F LT PUSH2 0xF8 JUMPI DUP1 MLOAD PUSH1 0xFF NOT AND DUP4 DUP1 ADD OR DUP6 SSTORE PUSH2 0x125 JUMP JUMPDEST DUP3 DUP1 ADD PUSH1 0x1 ADD DUP6 SSTORE DUP3 ISZERO PUSH2 0x125 JUMPI SWAP2 DUP3 ADD JUMPDEST DUP3 DUP2 GT ISZERO PUSH2 0x125 JUMPI DUP3 MLOAD DUP3 SSTORE SWAP2 PUSH1 0x20 ADD SWAP2 SWAP1 PUSH1 0x1 ADD SWAP1 PUSH2 0x10A JUMP JUMPDEST POP PUSH2 0x131 SWAP3 SWAP2 POP PUSH2 0x135 JUMP JUMPDEST POP SWAP1 JUMP JUMPDEST JUMPDEST DUP1 DUP3 GT ISZERO PUSH2 0x131 JUMPI PUSH1 0x0 DUP2 SSTORE PUSH1 0x1 ADD PUSH2 0x136 JUMP JUMPDEST PUSH4 0x4E487B71 PUSH1 0xE0 SHL PUSH1 0x0 MSTORE PUSH1 0x41 PUSH1 0x4 MSTORE PUSH1 0x24 PUSH1 0x0 REVERT JUMPDEST PUSH1 0x0 DUP3 PUSH1 0x1F DUP4 ADD SLT PUSH2 0x171 JUMPI PUSH1 0x0 DUP1 REVERT JUMPDEST DUP2 MLOAD PUSH1 0x1 PUSH1 0x1 PUSH1 0x40 SHL SUB DUP1 DUP3 GT ISZERO PUSH2 0x18B JUMPI PUSH2 0x18B PUSH2 0x14A JUMP JUMPDEST PUSH1 0x40 MLOAD PUSH1 0x1F DUP4 ADD PUSH1 0x1F NOT SWAP1 DUP2 AND PUSH1 0x3F ADD AND DUP2 ADD SWAP1 DUP3 DUP3 GT DUP2 DUP4 LT OR ISZERO PUSH2 0x1B3 JUMPI PUSH2 0x1B3 PUSH2 0x14A JUMP JUMPDEST DUP2 PUSH1 0x40 MSTORE DUP4 DUP2 MSTORE PUSH1 0x20 SWAP3 POP DUP7 DUP4 DUP6 DUP9 ADD ADD GT ISZERO PUSH2 0x1CF JUMPI PUSH1 0x0 DUP1 REVERT JUMPDEST PUSH1 0x0 SWAP2 POP JUMPDEST DUP4 DUP3 LT ISZERO PUSH2 0x1F1 JUMPI DUP6 DUP3 ADD DUP4 ADD MLOAD DUP2 DUP4 ADD DUP5 ADD MSTORE SWAP1 DUP3 ADD SWAP1 PUSH2 0x1D4 JUMP JUMPDEST DUP4 DUP3 GT ISZERO PUSH2 0x202 JUMPI PUSH1 0x0 DUP4 DUP6 DUP4 ADD ADD MSTORE JUMPDEST SWAP7 SWAP6 POP POP POP POP POP POP JUMP JUMPDEST DUP1 MLOAD PUSH1 0x1 PUSH1 0x1 PUSH1 0xA0 SHL SUB DUP2 AND DUP2 EQ PUSH2 0x223 JUMPI PUSH1 0x0 DUP1 REVERT JUMPDEST SWAP2 SWAP1 POP JUMP JUMPDEST PUSH1 0x0 DUP1 PUSH1 0x0 DUP1 PUSH1 0x0 DUP1 PUSH1 0xC0 DUP8 DUP10 SUB SLT ISZERO PUSH2 0x241 JUMPI PUSH1 0x0 DUP1 REVERT JUMPDEST DUP7 MLOAD PUSH1 0x1 PUSH1 0x1 PUSH1 0x40 SHL SUB DUP1 DUP3 GT ISZERO PUSH2 0x258 JUMPI PUSH1 0x0 DUP1 REVERT JUMPDEST PUSH2 0x264 DUP11 DUP4 DUP12 ADD PUSH2 0x160 JUMP JUMPDEST SWAP8 POP PUSH1 0x20 DUP10 ADD MLOAD SWAP7 POP PUSH1 0x40 DUP10 ADD MLOAD SWAP2 POP DUP1 DUP3 GT ISZERO PUSH2 0x281 JUMPI PUSH1 0x0 DUP1 REVERT JUMPDEST PUSH2 0x28D DUP11 DUP4 DUP12 ADD PUSH2 0x160 JUMP JUMPDEST SWAP6 POP PUSH1 0x60 DUP10 ADD MLOAD SWAP2 POP DUP1 DUP3 GT ISZERO PUSH2 0x2A3 JUMPI PUSH1 0x0 DUP1 REVERT JUMPDEST PUSH2 0x2AF DUP11 DUP4 DUP12 ADD PUSH2 0x160 JUMP JUMPDEST SWAP5 POP PUSH2 0x2BD PUSH1 0x80 DUP11 ADD PUSH2 0x20C JUMP JUMPDEST SWAP4 POP PUSH1 0xA0 DUP10 ADD MLOAD SWAP2 POP DUP1 DUP3 GT ISZERO PUSH2 0x2D3 JUMPI PUSH1 0x0 DUP1 REVERT JUMPDEST POP PUSH2 0x2E0 DUP10 DUP3 DUP11 ADD PUSH2 0x160 JUMP JUMPDEST SWAP2 POP POP SWAP3 SWAP6 POP SWAP3 SWAP6 POP SWAP3 SWAP6 JUMP JUMPDEST PUSH1 0x1 DUP2 DUP2 SHR SWAP1 DUP3 AND DUP1 PUSH2 0x301 JUMPI PUSH1 0x7F DUP3 AND SWAP2 POP JUMPDEST PUSH1 0x20 DUP3 LT DUP2 EQ ISZERO PUSH2 0x322 JUMPI PUSH4 0x4E487B71 PUSH1 0xE0 SHL PUSH1 0x0 MSTORE PUSH1 0x22 PUSH1 0x4 MSTORE PUSH1 0x24 PUSH1 0x0 REVERT JUMPDEST POP SWAP2 SWAP1 POP JUMP JUMPDEST PUSH2 0x4C6 DUP1 PUSH3 0x338 PUSH1 0x0 CODECOPY PUSH1 0x0 RETURN INVALID PUSH1 0x80 PUSH1 0x40 MSTORE PUSH1 0x4 CALLDATASIZE LT PUSH2 0x7B JUMPI PUSH1 0x0 CALLDATALOAD PUSH1 0xE0 SHR DUP1 PUSH4 0x9632E720 GT PUSH2 0x4E JUMPI DUP1 PUSH4 0x9632E720 EQ PUSH2 0x11C JUMPI DUP1 PUSH4 0xED88C68E EQ PUSH2 0x132 JUMPI DUP1 PUSH4 0xEF430AA6 EQ PUSH2 0x13C JUMPI DUP1 PUSH4 0xF3CCAAC0 EQ PUSH2 0x151 JUMPI PUSH1 0x0 DUP1 REVERT JUMPDEST DUP1 PUSH4 0x46C922D1 EQ PUSH2 0x80 JUMPI DUP1 PUSH4 0x48B9EF40 EQ PUSH2 0xAB JUMPI DUP1 PUSH4 0x4A79D50C EQ PUSH2 0xCF JUMPI DUP1 PUSH4 0x8DA5CB5B EQ PUSH2 0xE4 JUMPI JUMPDEST PUSH1 0x0 DUP1 REVERT JUMPDEST CALLVALUE DUP1 ISZERO PUSH2 0x8C JUMPI PUSH1 0x0 DUP1 REVERT JUMPDEST POP PUSH2 0x95 PUSH2 0x166 JUMP JUMPDEST PUSH1 0x40 MLOAD PUSH2 0xA2 SWAP2 SWAP1 PUSH2 0x3BB JUMP JUMPDEST PUSH1 0x40 MLOAD DUP1 SWAP2 SUB SWAP1 RETURN JUMPDEST CALLVALUE DUP1 ISZERO PUSH2 0xB7 JUMPI PUSH1 0x0 DUP1 REVERT JUMPDEST POP PUSH2 0xC1 PUSH1 0x1 SLOAD DUP2 JUMP JUMPDEST PUSH1 0x40 MLOAD SWAP1 DUP2 MSTORE PUSH1 0x20 ADD PUSH2 0xA2 JUMP JUMPDEST CALLVALUE DUP1 ISZERO PUSH2 0xDB JUMPI PUSH1 0x0 DUP1 REVERT JUMPDEST POP PUSH2 0x95 PUSH2 0x1F4 JUMP JUMPDEST CALLVALUE DUP1 ISZERO PUSH2 0xF0 JUMPI PUSH1 0x0 DUP1 REVERT JUMPDEST POP PUSH1 0x5 SLOAD PUSH2 0x104 SWAP1 PUSH1 0x1 PUSH1 0x1 PUSH1 0xA0 SHL SUB AND DUP2 JUMP JUMPDEST PUSH1 0x40 MLOAD PUSH1 0x1 PUSH1 0x1 PUSH1 0xA0 SHL SUB SWAP1 SWAP2 AND DUP2 MSTORE PUSH1 0x20 ADD PUSH2 0xA2 JUMP JUMPDEST CALLVALUE DUP1 ISZERO PUSH2 0x128 JUMPI PUSH1 0x0 DUP1 REVERT JUMPDEST POP PUSH2 0xC1 PUSH1 0x6 SLOAD DUP2 JUMP JUMPDEST PUSH2 0x13A PUSH2 0x201 JUMP JUMPDEST STOP JUMPDEST CALLVALUE DUP1 ISZERO PUSH2 0x148 JUMPI PUSH1 0x0 DUP1 REVERT JUMPDEST POP PUSH2 0x95 PUSH2 0x3A1 JUMP JUMPDEST CALLVALUE DUP1 ISZERO PUSH2 0x15D JUMPI PUSH1 0x0 DUP1 REVERT JUMPDEST POP PUSH2 0x95 PUSH2 0x3AE JUMP JUMPDEST PUSH1 0x3 DUP1 SLOAD PUSH2 0x173 SWAP1 PUSH2 0x410 JUMP JUMPDEST DUP1 PUSH1 0x1F ADD PUSH1 0x20 DUP1 SWAP2 DIV MUL PUSH1 0x20 ADD PUSH1 0x40 MLOAD SWAP1 DUP2 ADD PUSH1 0x40 MSTORE DUP1 SWAP3 SWAP2 SWAP1 DUP2 DUP2 MSTORE PUSH1 0x20 ADD DUP3 DUP1 SLOAD PUSH2 0x19F SWAP1 PUSH2 0x410 JUMP JUMPDEST DUP1 ISZERO PUSH2 0x1EC JUMPI DUP1 PUSH1 0x1F LT PUSH2 0x1C1 JUMPI PUSH2 0x100 DUP1 DUP4 SLOAD DIV MUL DUP4 MSTORE SWAP2 PUSH1 0x20 ADD SWAP2 PUSH2 0x1EC JUMP JUMPDEST DUP3 ADD SWAP2 SWAP1 PUSH1 0x0 MSTORE PUSH1 0x20 PUSH1 0x0 KECCAK256 SWAP1 JUMPDEST DUP2 SLOAD DUP2 MSTORE SWAP1 PUSH1 0x1 ADD SWAP1 PUSH1 0x20 ADD DUP1 DUP4 GT PUSH2 0x1CF JUMPI DUP3 SWAP1 SUB PUSH1 0x1F AND DUP3 ADD SWAP2 JUMPDEST POP POP POP POP POP DUP2 JUMP JUMPDEST PUSH1 0x0 DUP1 SLOAD PUSH2 0x173 SWAP1 PUSH2 0x410 JUMP JUMPDEST PUSH1 0x1 SLOAD PUSH1 0x6 SLOAD LT PUSH2 0x251 JUMPI PUSH1 0x40 MLOAD PUSH3 0x461BCD PUSH1 0xE5 SHL DUP2 MSTORE PUSH1 0x20 PUSH1 0x4 DUP3 ADD MSTORE PUSH1 0x15 PUSH1 0x24 DUP3 ADD MSTORE PUSH21 0x10D85B5C185A59DB88199D5B1B1E48199D5B991959 PUSH1 0x5A SHL PUSH1 0x44 DUP3 ADD MSTORE PUSH1 0x64 ADD JUMPDEST PUSH1 0x40 MLOAD DUP1 SWAP2 SUB SWAP1 REVERT JUMPDEST PUSH1 0x0 CALLVALUE GT PUSH2 0x2AC JUMPI PUSH1 0x40 MLOAD PUSH3 0x461BCD PUSH1 0xE5 SHL DUP2 MSTORE PUSH1 0x20 PUSH1 0x4 DUP3 ADD MSTORE PUSH1 0x22 PUSH1 0x24 DUP3 ADD MSTORE PUSH32 0x446F6E6174696F6E206D7573742062652067726561746572207468616E207A65 PUSH1 0x44 DUP3 ADD MSTORE PUSH2 0x726F PUSH1 0xF0 SHL PUSH1 0x64 DUP3 ADD MSTORE PUSH1 0x84 ADD PUSH2 0x248 JUMP JUMPDEST PUSH1 0x1 SLOAD PUSH1 0x6 SLOAD CALLVALUE SWAP2 PUSH1 0x0 SWAP2 PUSH2 0x2C2 SWAP1 DUP5 SWAP1 PUSH2 0x461 JUMP JUMPDEST GT ISZERO PUSH2 0x2E7 JUMPI PUSH1 0x6 SLOAD PUSH1 0x1 SLOAD PUSH2 0x2D8 SWAP2 SWAP1 PUSH2 0x479 JUMP JUMPDEST SWAP2 POP PUSH2 0x2E4 DUP3 CALLVALUE PUSH2 0x479 JUMP JUMPDEST SWAP1 POP JUMPDEST PUSH1 0x5 SLOAD PUSH1 0x40 MLOAD PUSH1 0x1 PUSH1 0x1 PUSH1 0xA0 SHL SUB SWAP1 SWAP2 AND SWAP1 DUP4 ISZERO PUSH2 0x8FC MUL SWAP1 DUP5 SWAP1 PUSH1 0x0 DUP2 DUP2 DUP2 DUP6 DUP9 DUP9 CALL SWAP4 POP POP POP POP ISZERO DUP1 ISZERO PUSH2 0x321 JUMPI RETURNDATASIZE PUSH1 0x0 DUP1 RETURNDATACOPY RETURNDATASIZE PUSH1 0x0 REVERT JUMPDEST POP DUP2 PUSH1 0x6 PUSH1 0x0 DUP3 DUP3 SLOAD PUSH2 0x334 SWAP2 SWAP1 PUSH2 0x461 JUMP JUMPDEST SWAP1 SWAP2 SSTORE POP POP PUSH1 0x40 MLOAD TIMESTAMP SWAP1 DUP4 SWAP1 CALLER SWAP1 PUSH32 0x4928895BA6723E8E27B15F32E4C3054A1B6C7F8C03F133558D6FA42B3928D14C SWAP1 PUSH1 0x0 SWAP1 LOG4 DUP1 ISZERO PUSH2 0x39D JUMPI PUSH1 0x40 MLOAD CALLER SWAP1 DUP3 ISZERO PUSH2 0x8FC MUL SWAP1 DUP4 SWAP1 PUSH1 0x0 DUP2 DUP2 DUP2 DUP6 DUP9 DUP9 CALL SWAP4 POP POP POP POP ISZERO DUP1 ISZERO PUSH2 0x39B JUMPI RETURNDATASIZE PUSH1 0x0 DUP1 RETURNDATACOPY RETURNDATASIZE PUSH1 0x0 REVERT JUMPDEST POP JUMPDEST POP POP JUMP JUMPDEST PUSH1 0x4 DUP1 SLOAD PUSH2 0x173 SWAP1 PUSH2 0x410 JUMP JUMPDEST PUSH1 0x2 DUP1 SLOAD PUSH2 0x173 SWAP1 PUSH2 0x410 JUMP JUMPDEST PUSH1 0x0 PUSH1 0x20 DUP1 DUP4 MSTORE DUP4 MLOAD DUP1 DUP3 DUP6 ADD MSTORE PUSH1 0x0 JUMPDEST DUP2 DUP2 LT ISZERO PUSH2 0x3E8 JUMPI DUP6 DUP2 ADD DUP4 ADD MLOAD DUP6 DUP3 ADD PUSH1 0x40 ADD MSTORE DUP3 ADD PUSH2 0x3CC JUMP JUMPDEST DUP2 DUP2 GT ISZERO PUSH2 0x3FA JUMPI PUSH1 0x0 PUSH1 0x40 DUP4 DUP8 ADD ADD MSTORE JUMPDEST POP PUSH1 0x1F ADD PUSH1 0x1F NOT AND SWAP3 SWAP1 SWAP3 ADD PUSH1 0x40 ADD SWAP4 SWAP3 POP POP POP JUMP JUMPDEST PUSH1 0x1 DUP2 DUP2 SHR SWAP1 DUP3 AND DUP1 PUSH2 0x424 JUMPI PUSH1 0x7F DUP3 AND SWAP2 POP JUMPDEST PUSH1 0x20 DUP3 LT DUP2 EQ ISZERO PUSH2 0x445 JUMPI PUSH4 0x4E487B71 PUSH1 0xE0 SHL PUSH1 0x0 MSTORE PUSH1 0x22 PUSH1 0x4 MSTORE PUSH1 0x24 PUSH1 0x0 REVERT JUMPDEST POP SWAP2 SWAP1 POP JUMP JUMPDEST PUSH4 0x4E487B71 PUSH1 0xE0 SHL PUSH1 0x0 MSTORE PUSH1 0x11 PUSH1 0x4 MSTORE PUSH1 0x24 PUSH1 0x0 REVERT JUMPDEST PUSH1 0x0 DUP3 NOT DUP3 GT ISZERO PUSH2 0x474 JUMPI PUSH2 0x474 PUSH2 0x44B JUMP JUMPDEST POP ADD SWAP1 JUMP JUMPDEST PUSH1 0x0 DUP3 DUP3 LT ISZERO PUSH2 0x48B JUMPI PUSH2 0x48B PUSH2 0x44B JUMP JUMPDEST POP SUB SWAP1 JUMP INVALID LOG2 PUSH5 0x6970667358 0x22 SLT KECCAK256 JUMPI MUL 0xCD SELFDESTRUCT DIV 0xDE SAR SMOD PUSH12 0x3DD545AC98077E116D435497 0xD2 PUSH29 0xB56B1A87BACC66072B64736F6C634300080A0033000000000000000000 "
        },
        "methodIdentifiers": {
          "category()": "ef430aa6",
          "donate()": "ed88c68e",
          "image()": "f3ccaac0",
          "owner()": "8da5cb5b",
          "receivedAmount()": "9632e720",
          "requiredAmount()": "48b9ef40",
          "story()": "46c922d1",
          "title()": "4a79d50c"
        }
      }
    }
  }
}