{
  "_format": "hh-sol-artifact-1",
  "contractName": "CampaignFactory",
  "sourceName": "contracts/Campaign.sol",
  "abi": [
    {
      "anonymous": false,
      "inputs": [
        {
          "indexed": false,
          "internalType": "string",
          "name": "title",
          "type": "string"
        },
        {
          "indexed": false,
          "internalType": "uint256",
          "name": "requiredAmount",
          "type": "uint256"
        },
        {
          "indexed": true,
          "internalType": "address",
          "name": "owner",
          "type": "address"
        },
        {
          "indexed": false,
          "internalType": "address",
          "name": "campaignAddress",
          "type": "address"
        },
        {
          "indexed": false,
          "internalType": "string",
          "name": "imgURI",
          "type": "string"
        },
        {
          "indexed": true,
          "internalType": "uint256",
          "name": "timestamp",
          "type": "uint256"
        },
        {
          "indexed": true,
          "internalType": "string",
          "name": "category",
          "type": "string"
        }
      ],
      "name": "campaignCreated",
      "type": "event"
    },
    {
      "inputs": [
        {
          "internalType": "string",
          "name": "campaignTitle",
          "type": "string"
        },
        {
          "internalType": "uint256",
          "name": "requiredCampaignAmount",
          "type": "uint256"
        },
        {
          "internalType": "string",
          "name": "imgURI",
          "type": "string"
        },
        {
          "internalType": "string",
          "name": "category",
          "type": "string"
        },
        {
          "internalType": "string",
          "name": "storyURI",
          "type": "string"
        }
      ],
      "name": "createCampaign",
      "outputs": [],
      "stateMutability": "nonpayable",
      "type": "function"
    },
    {
      "inputs": [
        {
          "internalType": "uint256",
          "name": "",
          "type": "uint256"
        }
      ],
      "name": "deployedCampaigns",
      "outputs": [
        {
          "internalType": "address",
          "name": "",
          "type": "address"
        }
      ],
      "stateMutability": "view",
      "type": "function"
    },
    {
      "inputs": [],
      "name": "getDeployedCampaigns",
      "outputs": [
        {
          "internalType": "address[]",
          "name": "",
          "type": "address[]"
        }
      ],
      "stateMutability": "view",
      "type": "function"
    }
  ],
  "bytecode": "0x608060405234801561001057600080fd5b50610d9f806100206000396000f3fe608060405234801561001057600080fd5b50600436106100415760003560e01c8063339d50a5146100465780634acb9d4f14610076578063c658857d1461008b575b600080fd5b61005961005436600461027e565b6100a0565b6040516001600160a01b0390911681526020015b60405180910390f35b61007e6100ca565b60405161006d9190610297565b61009e610099366004610387565b61012c565b005b600081815481106100b057600080fd5b6000918252602090912001546001600160a01b0316905081565b6060600080548060200260200160405190810160405280929190818152602001828054801561012257602002820191906000526020600020905b81546001600160a01b03168152600190910190602001808311610104575b5050505050905090565b600084116101805760405162461bcd60e51b815260206004820152601d60248201527f416d6f756e74206d7573742062652067726561746572207468616e2030000000604482015260640160405180910390fd5b600085858584338760405161019490610271565b6101a39695949392919061049a565b604051809103906000f0801580156101bf573d6000803e3d6000fd5b50600080546001810182559080527f290decd9548b62a8d60345a988386fc84ba6bc95484008f6362f93160ef3e5630180546001600160a01b0319166001600160a01b038316179055604051909150610219908490610509565b604051809103902042336001600160a01b03167ff932d905365211c7f19fda44bcb55b1adbe63365f7cdae1c35ddcb3e38ed1d468989868a6040516102619493929190610525565b60405180910390a4505050505050565b6107fe8061056c83390190565b60006020828403121561029057600080fd5b5035919050565b6020808252825182820181905260009190848201906040850190845b818110156102d85783516001600160a01b0316835292840192918401916001016102b3565b50909695505050505050565b634e487b7160e01b600052604160045260246000fd5b600082601f83011261030b57600080fd5b813567ffffffffffffffff80821115610326576103266102e4565b604051601f8301601f19908116603f0116810190828211818310171561034e5761034e6102e4565b8160405283815286602085880101111561036757600080fd5b836020870160208301376000602085830101528094505050505092915050565b600080600080600060a0868803121561039f57600080fd5b853567ffffffffffffffff808211156103b757600080fd5b6103c389838a016102fa565b96506020880135955060408801359150808211156103e057600080fd5b6103ec89838a016102fa565b9450606088013591508082111561040257600080fd5b61040e89838a016102fa565b9350608088013591508082111561042457600080fd5b50610431888289016102fa565b9150509295509295909350565b60005b83811015610459578181015183820152602001610441565b83811115610468576000848401525b50505050565b6000815180845261048681602086016020860161043e565b601f01601f19169290920160200192915050565b60c0815260006104ad60c083018961046e565b87602084015282810360408401526104c5818861046e565b905082810360608401526104d9818761046e565b6001600160a01b038616608085015283810360a085015290506104fc818561046e565b9998505050505050505050565b6000825161051b81846020870161043e565b9190910192915050565b608081526000610538608083018761046e565b602083018690526001600160a01b03851660408401528281036060840152610560818561046e565b97965050505050505056fe608060405234801561001057600080fd5b50604051620007fe380380620007fe83398101604081905261003191610228565b85516100449060009060208901906100b1565b506001859055835161005d9060029060208701906100b1565b5082516100719060039060208601906100b1565b5080516100859060049060208401906100b1565b5050600580546001600160a01b0319166001600160a01b03929092169190911790555061032892505050565b8280546100bd906102ed565b90600052602060002090601f0160209004810192826100df5760008555610125565b82601f106100f857805160ff1916838001178555610125565b82800160010185558215610125579182015b8281111561012557825182559160200191906001019061010a565b50610131929150610135565b5090565b5b808211156101315760008155600101610136565b634e487b7160e01b600052604160045260246000fd5b600082601f83011261017157600080fd5b81516001600160401b038082111561018b5761018b61014a565b604051601f8301601f19908116603f011681019082821181831017156101b3576101b361014a565b816040528381526020925086838588010111156101cf57600080fd5b600091505b838210156101f157858201830151818301840152908201906101d4565b838211156102025760008385830101525b9695505050505050565b80516001600160a01b038116811461022357600080fd5b919050565b60008060008060008060c0878903121561024157600080fd5b86516001600160401b038082111561025857600080fd5b6102648a838b01610160565b975060208901519650604089015191508082111561028157600080fd5b61028d8a838b01610160565b955060608901519150808211156102a357600080fd5b6102af8a838b01610160565b94506102bd60808a0161020c565b935060a08901519150808211156102d357600080fd5b506102e089828a01610160565b9150509295509295509295565b600181811c9082168061030157607f821691505b6020821081141561032257634e487b7160e01b600052602260045260246000fd5b50919050565b6104c680620003386000396000f3fe60806040526004361061007b5760003560e01c80639632e7201161004e5780639632e7201461011c578063ed88c68e14610132578063ef430aa61461013c578063f3ccaac01461015157600080fd5b806346c922d11461008057806348b9ef40146100ab5780634a79d50c146100cf5780638da5cb5b146100e4575b600080fd5b34801561008c57600080fd5b50610095610166565b6040516100a291906103bb565b60405180910390f35b3480156100b757600080fd5b506100c160015481565b6040519081526020016100a2565b3480156100db57600080fd5b506100956101f4565b3480156100f057600080fd5b50600554610104906001600160a01b031681565b6040516001600160a01b0390911681526020016100a2565b34801561012857600080fd5b506100c160065481565b61013a610201565b005b34801561014857600080fd5b506100956103a1565b34801561015d57600080fd5b506100956103ae565b6003805461017390610410565b80601f016020809104026020016040519081016040528092919081815260200182805461019f90610410565b80156101ec5780601f106101c1576101008083540402835291602001916101ec565b820191906000526020600020905b8154815290600101906020018083116101cf57829003601f168201915b505050505081565b6000805461017390610410565b600154600654106102515760405162461bcd60e51b815260206004820152601560248201527410d85b5c185a59db88199d5b1b1e48199d5b991959605a1b60448201526064015b60405180910390fd5b600034116102ac5760405162461bcd60e51b815260206004820152602260248201527f446f6e6174696f6e206d7573742062652067726561746572207468616e207a65604482015261726f60f01b6064820152608401610248565b60015460065434916000916102c2908490610461565b11156102e7576006546001546102d89190610479565b91506102e48234610479565b90505b6005546040516001600160a01b039091169083156108fc029084906000818181858888f19350505050158015610321573d6000803e3d6000fd5b5081600660008282546103349190610461565b90915550506040514290839033907f4928895ba6723e8e27b15f32e4c3054a1b6c7f8c03f133558d6fa42b3928d14c90600090a4801561039d57604051339082156108fc029083906000818181858888f1935050505015801561039b573d6000803e3d6000fd5b505b5050565b6004805461017390610410565b6002805461017390610410565b600060208083528351808285015260005b818110156103e8578581018301518582016040015282016103cc565b818111156103fa576000604083870101525b50601f01601f1916929092016040019392505050565b600181811c9082168061042457607f821691505b6020821081141561044557634e487b7160e01b600052602260045260246000fd5b50919050565b634e487b7160e01b600052601160045260246000fd5b600082198211156104745761047461044b565b500190565b60008282101561048b5761048b61044b565b50039056fea26469706673582212205702cdff04de1d076b3dd545ac98077e116d435497d27cb56b1a87bacc66072b64736f6c634300080a0033a2646970667358221220f82b767bb951912a9dfef1ea04db97b4da1dfdde80b34519791f0bab313e08c364736f6c634300080a0033",
  "linkReferences": {},
  "deployedLinkReferences": {}
}